S01D00003030355F6275745F6C65645F696E746572727570742E73726563E8
S11300000C9434000C943E000C943E000C9440007C
S11300100C943E000C943E000C943E000C943E0064
S11300200C943E000C943E000C943E000C943E0054
S11300300C943E000C943E000C943E000C943E0044
S11300400C943E000C943E000C943E000C943E0034
S11300500C943E000C943E000C943E000C943E0024
S11300600C943E000C943E0011241FBECFEFD8E048
S1130070DEBFCDBF0E9452000C9463000C940000BC
S11300801F920F920FB60F9211248F9386B1811194
S113009002C0289A01C028988F910F900FBE0F902C
S11300A01F901895209A239A38982898EBE6F0E048
S11300B0808180688083E8E6F0E0808181608083CD
S10D00C078941B9AFECFF894FFCF4A
S9030000FC
