S01200003030335F627574746F6E2E7372656384
S11300000C9434000C9446000C9446000C94460066
S11300100C9446000C9446000C9446000C94460044
S11300200C9446000C9446000C9446000C94460034
S11300300C9446000C9446000C9446000C94460024
S11300400C9446000C9446000C9446000C94460014
S11300500C9446000C9446000C9446000C94460004
S11300600C9446000C94460011241FBECFEFD8E038
S1130070DEBFCDBF21E0A0E0B1E001C01D92A13000
S1130080B207E1F70E9448000C9467000C9400004A
S11300902098219A299883B18093000183B181111A
S11300A00BC0299A2FEF81EE94E0215080409040BC
S11300B0E1F700C00000EFCF29982FEF81EE94E024
S11300C0215080409040E1F700C00000E4CFF89454
S10500D0FFCF5C
S9030000FC
